:020000040000FA
:060000008CEF0CF0120071
:0A0006000100661900006000000010
:040010000B000000E1
:0C00140046EC05F0FB0EDBCFF3FFDB0633
:10002000F35000090AE094EC05F0FA0EFFEC05F03D
:10003000F3E1151CF1E1010E01D0000E75EF05F0A2
:1000400046EC05F03B0EE12402E3E168E652E16E86
:10005000010EDB6A020EDB6AF90EDBCFF6FFFA0E49
:10006000DBCFF7FFFB0EDBCFF8FF0800F550DF6EAC
:10007000DF5002E199EF04F0250EDF5C02E08CEF27
:1000800004F0030EDB6A040EDB6A050EDB6A060E63
:10009000DB6A070EDB6AAEEC04F02D0EDF5C0CE0D1
:1000A0002B0EDF5C09E0200EDF5C06E0230EDF5C38
:1000B00003E0300EDF5C1AE1DF50300A14E0130A6F
:1000C0000FE0030A0AE00B0A05E0060AE4E1030E6A
:1000D000DB80E1D7030EDB82DED7030EDB84DBD7C8
:1000E000030EDB86D8D7030EDB88D5D72A0EDF5C5C
:1000F0001BE1AAEC04F0F8EC04F010E0030EDB8046
:1001000008680968130EDBCF0DF0140EDBCF0EF07C
:1001100010EC0BF0040E06C0DBFF03D0130EE1EC75
:1001200004F0AEEC04F00BD0090EDB6A4FEC05F0E6
:1001300003E0C3EC05F0FAD7090EE1EC04F0030E7E
:10014000DBB0DB982E0EDF5C1BE1AEEC04F02A0E78
:10015000DF5C0BE1AAEC04F0F8EC04F003E1130E11
:1001600033EC05F0AEEC04F00BD0090EDB6A4FEC7B
:1001700005F003E0C3EC05F0FAD7090E33EC05F007
:10018000680EDF5C07E1AEEC04F0680EDF5C1DE199
:10019000030E18D0740EDF5C17E07A0EDF5C14E0FB
:1001A000480EDF5C06E0540EDF5C03E05A0EDF5CB5
:1001B00002E1020E07D06C0EDF5C03E06A0EDF5C2A
:1001C00004E1010E86EC05F0C9DBDF506E0A01E1A7
:1001D0007FD31E0A01E192D1200A01E18FD13F0AAB
:1001E00001E149D11A0A01E146D10D0A01E143D1E9
:1001F000200A01E140D13A0A01E13DD1200A01E1A2
:100200003AD1260A01E135D10D0A01E132D11A0AAB
:1002100001E1D9D0200A4AE0300A1FE0460A0EE088
:10022000250A01E083D3D950F90FE96EFF0EDA20D9
:10023000EA6E010EEE5E000EEE5AEE5A94EC05F0F8
:10024000250EE66E95DB03E1151C01E169D390EC08
:1002500005F001E26BD3DB2A69D3080EDB6A040EDA
:10026000DB50010806E2040EDB0458EC05F0DB501D
:100270008BDB080EDB5009E0030EDB50010B05E1C0
:1002800072DB01E04DD3080EDB6A64DBEFCFDFFFEA
:1002900008EC06F003E1151C01E142D390EC05F0F7
:1002A00001E3DB2A60DB01E141D33AD3070EDB50E7
:1002B00002080FE1D4EC05F0030E9BEC05F00E0EE6
:1002C000EECFDBFF0F0EEECFDBFF100EEECFDBFF2E
:1002D00020D0F70EDBCF17F0F80EDBCF18F0020EB0
:1002E000175E000E185AF70E17C0DBFFF80E18C085
:1002F000DBFF17C0E9FF18C0EAFF8BEC05F0166AB8
:100300000E0E14C0DBFF0F0E15C0DBFF100E16C063
:10031000DBFF0E0EDBCFE6FF0F0EDBCFE6FF100E8E
:10032000DBCFE6FF0BEC0CF0E552E552E552130E85
:1003300007C0DBFF140E08C0DBFF060EDB5005E034
:10034000130ECFEC05F001E26ADBF3EC05F002E2FC
:10035000130E37DBB6EC05F006E0040ECFEC05F02B
:1003600002E2050E2EDB030EDBB005D0FCDA01E065
:10037000D7D2080EDB6A090EDB6A0E0EDBCFF6FF62
:100380000F0EDBCFF7FF100EDBCFF8FF0800F550A4
:10039000DF6EDF5014E0F9EC05F011E208EC06F036
:1003A00003E1151C01E1BCD2BBDB01E3DB2A090E32
:1003B000DB2AD9500E0FE96E000ECBDBE7D7D3DA7C
:1003C00001E1B4D2ADD2C6DA110EEECFDBFF120ED0
:1003D000EDCFDBFF110EDBCFE6FF120EDBCFE6FF2A
:1003E000FDEC0BF0E552E552130EF3CFDBFF140EDC
:1003F000F4CFDBFF060EDB5004E0130ED0DB01E28E
:100400000EDBF3EC05F002E2130EDBDAAFDB05E006
:10041000040EC5DB02E2050ED4DA030EDBB005D014
:10042000A2DA01E07DD2080EDB6A090EDB6A110E4A
:10043000DBCFE9FF120EDBCFEAFFEFCFDFFFDF50AC
:1004400014E0D7DB12E2E4DB03E1151C01E168D222
:1004500067DB01E3DB2A090EDB2A110EDB2ADBCF87
:10046000E9FF120EE8E3DB2AE6D77DDA01E15ED28E
:1004700057D2030EDB8E070EDB0410E195DB040E72
:100480005ADB0A0EEECFDBFF0B0EEECFDBFF0C0EBE
:10049000EECFDBFF0D0EEECFDBFF6CD0070EDB5097
:1004A00003082CE1030EDBAE0DD0B2DA020E76DAD1
:1004B000EFCF14F0156A166A176A14AE39D01568B2
:1004C000166835D0F70EDBCF15F0F80EDBCF16F03F
:1004D000020E155E000E165AF70E15C0DBFFF80E61
:1004E00016C0DBFF15C0E9FF16C0EAFFEFCF14F01E
:1004F0000A0E14C0DBFF0B0EDB6A38D0070EDB5090
:10050000020809E1030EDBAE04D059DB16AE10D0B1
:100510000ED055DB0DD0030EDBAE12D079DA020E11
:100520003DDAF9DA166A176A15AE02D0166817684E
:10053000E2DA0C0E16C0DBFF0D0E17C0DBFF1AD07F
:10054000F70EDBCF16F0F80EDBCF17F0020E165EBB
:10055000000E175AF70E16C0DBFFF80E17C0DBFFB0
:1005600016C0E9FF17C0EAFFD6DAC5DA0C0EDB6A5F
:100570000D0EDB6A060EDB5005E1010EF36E050E73
:10058000F3CFDBFF150EDB6A160EDB6AD950370F8F
:10059000146E000EDA20156E390E14C0DBFF3A0E11
:1005A00015C0DBFF380EDB6A080EDB6A0A0EAEDA16
:1005B000DF50780A12E0200A10E0280A0CE0200A36
:1005C0000AE03F0A06E00D0A02E0200A08E1020EF6
:1005D00005D0080E03D0080EDF26100E97DA030EA2
:1005E000DBBE02D0DB92DB94DB50800B24E08ADAA6
:1005F000D890030EEB50000A08E6000EEE5C000EE9
:10060000EE58000EEE58000EEE5815E213DA0B68A5
:100610000C680D680E68C5EC0BF00A0E02C0DBFF1B
:100620000B0E03C0DBFF0C0E04C0DBFF0D0E05C07C
:10063000DBFF2D0E08D0030EDBA202D02B0E03D061
:10064000DBA408D0200EF36E170EF3CFDBFF150EE0
:10065000DB2A02D0170EDB6A050EDB5003E1B7D9A7
:1006600001E189D0500E146E190E156E000E166E33
:10067000070EDBCF17F0186A196A1A6A17C00BF059
:1006800018C00CF019C00DF01AC00EF0D3D930EC20
:100690000CF014500224F36E15500320F46E165023
:1006A0000420F86EF4CFF7FFF3CFF6FF0800090E31
:1006B000F5CFDBFF580EDF5C0FE1610EF36E090E24
:1006C0007BD90AE3200E146E090EDBCFE7FF14502E
:1006D000E75E090EE7CFDBFF070EDBCF14F0156AEC
:1006E000166A176A0FDA14C00BF015C00CF016C0AA
:1006F0000DF017C00EF0EECF06F0EECF07F0EECF04
:1007000008F0EFCF09F030EC0CF009C0EDFF08C0A5
:10071000EDFF07C0EDFF06C0EFFF390EDBCFE9FFAD
:10072000DB063A0EDBCFEAFF01E2DB06090EDBCF88
:10073000EFFF150EDB2A4BD995E1030EDBA61DD08A
:100740006F0EDF5C06E1C1D918E3150EDB285BDA1A
:1007500014D0780EDF5C09E0580EDF5C06E0620E14
:10076000DF5C03E0420EDF5C08E1020EF36E160E62
:10077000F3CFDBFF02D0150EDB6A030EDB50100B4C
:100780000EE0040EDBCF14F0050EDB50D8801454BD
:1007900006E2060EDB5003E1040EDB5034DA95D995
:1007A0000AE2050EDBCFE7FF150EDB50E75E050E14
:1007B000E7CFDBFF02D0050EDB6A040EDBCF14F0BF
:1007C000160E45D9D880145414E2160EDBCFE6FF7E
:1007D000150EDBCFE6FF040EDBCFE6FF050EDB5088
:1007E000E552E75CE552D880E754E552D880E754FB
:1007F0005FD9030EDB50010B0BE1080EDB5008E064
:10080000B2D801E08DD0080EDB50BED8080EDB6AEE
:10081000170EDB5007E088D9170EF1D903E1151C3C
:1008200001E17ED0160EDB5016E07ED9300EE66E6A
:100830009FD802E1151C74E077D9DFCFE6FF83EC87
:100840000BF0E552E552E552F4CF15F00001F31C30
:1008500002E1151C65E0050EDBCF14F0160EDB502F
:10086000D880145409E2050EDBCFE7FF160EDB50EB
:10087000E75E050EE7CFDBFF300EE66E050ECBD947
:100880004FE1390EDB2ADBCFE9FF3A0E01E3DB2A29
:10089000DBCFEAFF090EEFCFDBFFDB500EE044D9E0
:1008A000090EADD902E1151C3BE0390EDB2ADBCF86
:1008B000E9FF3A0EEDE3DB2AEBD755D831E1160E0E
:1008C000DBCFE6FF080EC3D8E552E7245DD82ED073
:1008D000070EDB50030A1CE0010A14E0030A07E0DC
:1008E0007BD9DBCFEEFF020EDBCFEDFF1FD0F5D8BB
:1008F000196A17AE02D0186819682CD8BCD819C06C
:10090000EEFF14D0EAD817BE186824D8B4D80ED099
:1009100063D9DBCFEFFF0AD07BD905E1151C03E1DA
:10092000F368F46810D0FCD801E3DB2A79D935EFFD
:1009300000F0010EDBCF14F0020EDBCF15F014C077
:10094000F3FF15C0F4FF3B0EE15C02E2E16AE55201
:10095000E16ECBD029D9020E9BEF05F061D90800DA
:10096000F550DF6E1200200EE66E080E0BEF06F05B
:1009700083EC0BF0E552E552E552F3CF14F0F4CFDF
:1009800015F00001F31C1200146E156AD950010F06
:100990004DD91450EE261550ED221200185E000EAF
:1009A000195AF70E18C0DBFFF80E19C0DBFF18C08C
:1009B000E9FF19C0EAFF1200DBCFF4FFF350F45C4B
:1009C0001200DB50E76E040EE7CFDBFF12000A0EC9
:1009D000DBCF14F00B0EDBCF15F00C0EDBCF16F0D7
:1009E0000D0EDBCF17F01450151016101710120053
:1009F000130EEECFDBFF140EEDCFDBFF130EDBCFBC
:100A000014F0140EDBCF15F00001800E1514120047
:100A1000F70EDBCF18F0F80EDBCF19F01200050E41
:100A2000DB50E66ED950130F01D9E552E750EE6E58
:100A3000ED6A12000A0EDBCF06F00B0EDBCF07F0DB
:100A40000C0EDBCF08F00D0EDBCF09F01200DBCF70
:100A5000E6FF150EDBCFE6FF050EDB50E552E7247F
:100A6000E552E7241200DB50CED8010EF36E060EDD
:100A7000F3CFDBFF1200EE50EFCFEAFFE96E16C0B6
:100A8000EEFF17C0EEFF18C0EEFF1200D9CFE6FF51
:100A9000DACFE6FFE1CFD9FFE2CFDAFF1200DFCFF6
:100AA000E6FFE66A6AEC0CF0E552E552F3501200FC
:100AB000E76E080EE7CFDBFF1200EECF14F0EECFAB
:100AC00015F0EFCF16F0176A1200050EDBCF14F009
:100AD000150EDB50D88014541200010EDBCF16F037
:100AE000020EDBCF17F0186A1200E552E5CFDAFFED
:100AF000E7CFD9FF12000A0E14C0DBFF0B0E15C0A2
:100B0000DBFF1200D9500A0F16EF06F0F36E070E46
:100B1000F3CFDBFF1200EECF14F0EFCF15F0120091
:100B2000010EDB2A020E1200FC0EDBCFE6FFFD0EEB
:100B3000DBCFE6FF1200145E000E155AF70E14C04C
:100B4000DBFFF80E15C0DBFF14C0E9FF15C0EAFF9C
:100B50001200DA20EA6EEF2AEECFF6FF000EEF2247
:100B6000EECFF7FFEF22EECFF8FF1200040EDBCF3F
:100B7000E6FF130EDB50E552E75C9ADFDB5004DF43
:100B8000060EDB501200090EDB500A0DF350DF2475
:100B9000D00FE76E090EE7CFDBFFAEEF04F0DB50BE
:100BA000F36E050EDCEF04F0F70EDBCF14F0F80E59
:100BB000DBCF15F01200DFCFE6FFB8EF04F028DF3F
:100BC000030EECDE5DEF05F00AEC00F0E552E552B5
:100BD000E552E55200091200BDDEEE50EFCFEAFF0C
:100BE000E96E010E1200130EDB50F36E040EDCEF03
:100BF00004F0040EDB50F36E090EDCEF04F0DBCFE3
:100C0000E6FFB8EF04F0E76E050EE7CFDBFF12005A
:100C10008BDFDBEF05F0DBCFE6FF86DFE4EF05F0EF
:100C2000D950F90FE96EFF0EA9EF05F0E96E000E3D
:060C3000DA20EA6E12005A
:0A0C3600D9CFE6FFE1CFD9FF020E8F
:100C4000E126FD0EDBCF14F0DB06FE0EDBCF15F048
:100C500001E2DB061450151012E0DE6ADD6ADECF19
:100C600014F0DDCF15F0FA0E145C000E155806E2F4
:100C70000000DF2A010E01E3DB2AF1D7E2D7020EE2
:100C8000E15C02E2E16AE552E16EE552E7CFD9FFAD
:100C90001200D9CFE6FFE1CFD9FFFE0EDB50010BEA
:100CA000E8B08388E8A08398FE0EDB407F0B010B41
:100CB000E8B0838AE8A0839AFE0EDB40E8403F0B51
:100CC000010BE8B0838CE8A0839CFE0EDB40E8407B
:100CD000E8401F0B010BE8B0838EE8A0839E83825F
:100CE000010EE66EE66AA7DFE552E5528392E55211
:100CF000E7CFD9FF1200D9CFE6FFE1CFD9FF83902C
:100D0000FE0EDB380F0BE66EC4DFE552FE0EDB5045
:100D10000F0BE66EBEDFE552020EE66EE66A8BDF73
:100D2000E552E552E552E7CFD9FF1200D9CFE6FFF1
:100D3000E1CFD9FF8380FE0EDB380F0BE66EA9DF13
:100D4000E552FE0EDB500F0BE66EA3DFE552010EFF
:100D5000E66EE66A70DFE552E552E552E7CFD9FF6D
:100D60001200D9CFE6FFE1CFD9FFFD0EDBCFF6FFB2
:100D7000FE0EDBCFF7FF0800F55011E0FD0EDBCFD4
:100D8000F6FFFE0EDBCFF7FF0800F550E66ECEDF74
:100D9000E552FD0EDB2AFE0E01E3DB2AE6D7E55223
:100DA000E7CFD9FF1200D9CFE6FFE1CFD9FFFD0E83
:100DB000DBCFE9FFFE0EDBCFEAFFEF5010E0FD0EC8
:100DC000DBCFE9FFFE0EDBCFEAFFEF50E66EAEDFD2
:100DD000E552FD0EDB2AFE0E01E3DB2AE8D7E552E1
:100DE000E7CFD9FF1200010EE66E85DFE552030E54
:100DF000E66EE66A20DFE552E5521200D9CFE6FF43
:100E0000E1CFD9FFFE0EDB0407E1FD0EDB04800F0E
:100E1000E66E71DFE55206D0FD0EDB04C00FE66E14
:100E20006ADFE552E552E7CFD9FF1200956A836A7F
:100E3000140EE66EE66AFFDEE552E552020EE66E3D
:100E40005ADFE552280EE66E56DFE5520C0EE66ECE
:100E500052DFE552060EE66E4EDFE552010EE66EFB
:100E60004ADFE552050EE66EE66AE5DEE552E5523A
:100E70001200928092820D0EC16EBE0EC06E010EE7
:100E8000C26E1200D9CFE6FFE1CFD9FFC30EC21662
:100E9000FE0EDB50040DF350C212030EE66EE66A3E
:100EA000CADEE552E552C282C2B2FED7C450166E07
:100EB00016C017F0166AC35000011610146E17C042
:100EC00015F014C0F3FF15C0F4FF00D0E552E7CFD2
:100ED000D9FF1200D9CFE6FFE1CFD9FF070EE126F7
:100EE000DE6ADE6ADE6ADD6ADD52DD52060EDB6A2C
:100EF0000A0EF36E060EDBCFF4FFF350F45C16E23D
:100F0000E66AC0DFE552F3CF14F0F4CF15F0166AAD
:100F1000176A1450DE261550DE221650DE221750B6
:100F2000DD22DD52DD52060EDB2AE2D7D9CFE9FF02
:100F3000DACFEAFFEECF06F0EECF07F0EECF08F003
:100F4000EFCF09F00A0E0B6E0C6A0D6A0E6A30ECD8
:100F50000CF0040E06C0DBFF050E07C0DBFFF40E2D
:100F6000086E010E096E040EDBCF0DF0050EDBCF0F
:100F70000EF0F2EC0AF006C063F007C064F0FF0E5A
:100F800000016327010E64230D68030E0E6E63C01B
:100F900008F064C009F054EC0CF008C063F009C01C
:100FA00064F067C014F0156A14BE1568145000018F
:100FB00063271550642363C0F3FF64C0F4FF070E7A
:100FC000E15C03E200D0E16AE552E16EE552E7CF71
:100FD000D9FF1200D9CFE6FFE1CFD9FF050EE126F8
:100FE000DE6ADE6ADE6ADD6ADD52DD52040EDB6A2D
:100FF0000A0EF36E040EDBCFF4FFF350F45C17E23D
:10100000010EE66E3FDFE552F3CF14F0F4CF15F09A
:10101000166A176A1450DE261550DE221650DE229C
:101020001750DD22DD52DD52040EDB2AE1D7D9CF85
:10103000E9FFDACFEAFFEECF06F0EECF07F0EECF12
:1010400008F0EFCF09F00A0E0B6E0C6A0D6A0E6AFB
:1010500030EC0CF006C065F007C066F065C0F3FF29
:1010600066C0F4FF050EE15C03E200D0E16AE552E0
:10107000E16EE552E7CFD9FF1200939093929394DB
:10108000819081928194948094829484120022DFD2
:10109000A1DF00011E0E635D000E645904E3818030
:1010A000010E616F08D01C0ED8806355000E645588
:1010B00002E38190616BC80ED8806555000E6655BD
:1010C00004E38182010E626F07D0900E655D010E10
:1010D000665902E38192626B2D0E635D000E6459C6
:1010E0000FE38184640EE66EE66AA5DDE552E55203
:1010F0008194640EE66EE66A9EDDE552E55201D00B
:1011000081941200E7DEEAEF07F08250010B15E14F
:101110000001680512E1140EE66EE66A8CDDE55208
:10112000E55282B00AD00001605102E0000E01D009
:10113000010E606F600501E181948250010B000196
:10114000686F12008250020B17E10001690514E17B
:10115000140EE66EE66A6FDDE552E55282B20CD0FF
:101160000001615102E0000E01D0010E616F61517A
:10117000E8B08180E8A081908250020B01E0010E6E
:101180000001696F8250040B16E16A0514E1140E28
:10119000E66EE66A50DDE552E55282B40CD00001FD
:1011A000625102E0000E01D0010E626F6251E8B0A0
:1011B0008182E8A081928250040B01E0010E0001BF
:1011C0006A6F12008194A2EF08F00001605101E102
:1011D00000D01200D9CFE6FFE1CFD9FF110EE126F2
:1011E000010EE66EE66E0ADEE552E5520001605140
:1011F00008E1F60EE66E160EE66EB3DDE552E55238
:1012000007D0E60EE66E160EE66EABDDE552E55251
:10121000010EE66E020EE66EF1DDE552E5520001CA
:10122000605156E163C0E6FF64C0E6FFDF0E146E56
:10123000160E156E166A14C0E6FF15C0E6FF16C03E
:10124000E6FFD9CFE6FFDACFE6FF4DEC0AF0176EE6
:10125000070EE15E1750D9CFE6FFDACFE6FFA3DD38
:10126000E552E552060EE66E020EE66EC7DDE55269
:10127000E552DC0EE66E160EE66E73DDE552E552C3
:10128000080EE66E020EE66EB9DDE552E55200018B
:10129000620508E1D70EE66E160EE66E62DDE552D7
:1012A000E55207D0D10EE66E160EE66E5ADDE55217
:1012B000E5520D0EE66E020EE66EA0DDE552E55239
:1012C000CD0EE66E160EE66E4CDDE552E55238D0D8
:1012D000610508E1C70EE66E160EE66E42DDE552C8
:1012E000E55207D0C10EE66E160EE66E3ADDE55207
:1012F000E552080EE66E020EE66E80DDE552E5521E
:101300000001620508E1D70EE66E160EE66E29DDD5
:10131000E552E55207D0D10EE66E160EE66E21DDDF
:10132000E552E5520D0EE66E020EE66E67DDE55201
:10133000E552CD0EE66E160EE66E13DDE552E55271
:10134000110EE15C02E2E16AE552E16EE552E7CF9F
:10135000D9FF120048DD010EE66EE66E4FDDE55264
:10136000E552B80EE66E160EE66EFBDCE552E5526F
:10137000010EE66E020EE66E41DDE552E552AA0E62
:10138000E66E160EE66EEDDCE552E552BC0EE66E3C
:10139000020EE66E50DCE552E55225DD010EE66EEA
:1013A000E66E2CDDE552E5529F0EE66E160EE66EF9
:1013B000D8DCE552E552010EE66E020EE66E1EDD49
:1013C000E552E552940EE66E160EE66ECADCE55264
:1013D000E552BC0EE66E020EE66E2DDCE552E552DD
:1013E00002DD010EE66EE66E09DDE552E552870E7E
:1013F000E66E160EE66EB5DCE552E552010EE66EBF
:10140000020EE66EFBDCE552E5527A0EE66E160E33
:10141000E66EA7DCE552E552F40EE66E010EE66ECE
:101420000ADCE552E552F3EF06F0D9CFE6FFE1CF53
:10143000D9FF020EE126DE6ADD6A1FDE1ADDF6DC68
:1014400089DF48DDC7DDC6DE60DE0001605102E1F4
:101450001EDE01D0B7DEDF2A010E01E3DB2ADECF7C
:1014600014F0DDCF15F0050E145C000E155803E3E3
:10147000B1DEDE6ADD6A140EE66EE66A1BEC06F08B
:10148000E552E552E1D7020EE15C02E2E16AE55283
:0A149000E16EE552E7CFD9FF12002C
:06149A00D9CFE6FFDACF16
:1014A000E6FFE1CFD9FFE2CFDAFFE652E652E6529D
:1014B000E652D950F90F146EFF0EDA20156E020EA7
:1014C00014C0DBFF030E15C0DBFF020EDBCFE6FF0F
:1014D000030EDBCFE6FFF90EDBCFE6FFFA0EDBCF24
:1014E000E6FFFB0EDBCFE6FFD950FC0FE66EFF0EEA
:1014F000DA20E66E20EC00F0146E070EE15C02E2EA
:10150000E16AE552E16E1450F3CFDEFFF4CFDDFF68
:10151000FC0EDBCFE9FFFD0EDBCFEAFFEF6ADECF8B
:1015200014F0DDCF15F014C0F3FF15C0F4FF040E66
:10153000E15C02E2E16AE552E16EE552E5CFDAFFF5
:06154000E7CFD9FF120005
:0A154600060EF66E000EF76E000EA2
:10155000F86E00010900F550706F0900F550716FC9
:1015600003E1706701D03DD00900F5506B6F0900B1
:10157000F5506C6F0900F5506D6F09000900F550CA
:10158000E96E0900F550EA6E090009000900F550FE
:101590006E6F0900F5506F6F09000900F6CF72F009
:1015A000F7CF73F0F8CF74F06BC0F6FF6CC0F7FFA5
:1015B0006DC0F8FF00016E5302E16F5307E00900B0
:1015C000F550EE6E6E07F8E26F07F9D772C0F6FFBE
:1015D00073C0F7FF74C0F8FF00017007000E715B65
:0415E000BFD712005F
:0C15E40008C012F008500D02F4CF07F010
:1015F000F3CF06F009500E02F4CF09F0F3CF08F054
:101600000D02F3500726F4500822E86A092212500E
:101610000E02F3500726F4500822E86A0922000C53
:1016200009C013F008C012F008500D02F4CF07F003
:10163000F3CF06F009500E02F4CF09F0F3CF08F013
:101640000D02F3500726F4500822E86A09221250CE
:101650000E02F3500726F4500822E86A09220EAE63
:1016600036EF0BF01250085E1350095A13AE000CFF
:0A1670000D50085E0E50095A000CE0
:06167A00496E697469610C
:101680006C697A696E670053797374656D20526571
:1016900061647900536D61727420486F6D6500500C
:1016A000494331384634353830004172706974200E
:1016B0005320426164686500446F6E652042793A48
:1016C00000463A4F464600463A4F4E200020202022
:1016D000004C3A4F4646004C3A4F4E0020200054F2
:1016E0003A25327543004D414E55414C204D4F44F3
:1016F0004520202020004155544F204D4F44452087
:0617000020202020200043
:0A170600D9CFE6FFDACFE6FFE1CF0E
:10171000D9FFE2CFDAFFFB0EDBCF14F0FC0EDBCFFC
:1017200015F00001800E15141AE1FB0EDBCFE9FF66
:10173000FC0EDBCFEAFFEECFF3FFEDCFF4FFEE2A96
:10174000000EEF22F3CFE9FFF4CFEAFFFD0EDBCF6F
:10175000EFFFEF50156AF36E15C0F4FF10D0FB0ECB
:10176000DB50FE0806E1FD0EDBCFE6FF9AEC0CF045
:1017700005D0FD0EDBCFE6FFB1EC0CF0E552E552F3
:0A178000E5CFDAFFE7CFD9FF120032
:06178A0006500B02F3CF34
:1017900002F0F4CF03F00C02F3500326000EF42005
:1017A000046E06500D02F3500426000EF420056E60
:1017B00006500E02F350052607500B02F350032685
:1017C000F4500422000E052207500C02F3500426A8
:1017D000F450052207500D02F350052608500B0265
:1017E000F3500426F450052208500C02F35005264D
:0A17F00009500B02F3500526120009
:0617FA00FE0EE3CFE9FF43
:10180000FF0EE3CFEAFFF36AF46AEE5203E0F34A15
:10181000F42AFBD71200FF0EE3CFF8FFE552FF0ECC
:10182000E3CFF7FFE552FF0EE3CFF6FFE552E66A9E
:10183000E66AE66A0900F55209E0FD0EE32A05E1D1
:10184000FE0EE32A02E1FF0EE32AF4D7FD0EE3CFFA
:1018500007F0FE0EE3CF08F0FF0EE3CF09F0120011
:10186000056A046A036A026A200EE76ED89006369B
:1018700007360836093602360336043605360B506D
:10188000025C0C5003580D5004580E50055809E3E3
:101890000B50025E0C50035A0D50045A0E50055A5C
:0818A000062AE72EE4D712002E
:0818A800056A046A100EE76EE8
:1018B000D89008360936043605360D50045C0E50B3
:1018C000055805E30D50045E0E50055A082AE72E10
:0418D000F0D712003B
:0C18D400F36AF46AFF0EE124E96EFF0ED7
:1018E000E220EA6EED6607D02F0EEF6404D03A0EC8
:0818F000EF6001D0F32A1200A1
:0818F800000EF36E00EE00F09B
:10190000060E01D81200EA6002D0EE6AFCD7F3504E
:08191000E9601200EE6AFCD749
:0819180015EE00F025EE00F0D1
:10192000F86A019CA3EC0AF0B2EC0CF015EC0AF09A
:04193000FBD71200CF
:0C193400FF0EE350ACBA04D0AF6AAB8EDB
:10194000AC8A949CACA2FED7AD6EF36EF46A120022
:101950003031323334353637383961626364656625
:011960000086
:02196200120071
:0219640012006F
:0A1966000000000000000000010175
:011970000175
:020000040030CA
:0100010002FC
:010003001EDE
:01000500807A
:010006008178
:00000001FF
